{
  "contractName": "testcontra",
  "abi": [
    {
      "inputs": [
        {
          "internalType": "address",
          "name": "evaluator1",
          "type": "address"
        }
      ],
      "stateMutability": "nonpayable",
      "type": "constructor"
    },
    {
      "anonymous": false,
      "inputs": [
        {
          "indexed": true,
          "internalType": "address",
          "name": "owner",
          "type": "address"
        },
        {
          "indexed": true,
          "internalType": "address",
          "name": "approved",
          "type": "address"
        },
        {
          "indexed": true,
          "internalType": "uint256",
          "name": "tokenId",
          "type": "uint256"
        }
      ],
      "name": "Approval",
      "type": "event"
    },
    {
      "anonymous": false,
      "inputs": [
        {
          "indexed": true,
          "internalType": "address",
          "name": "owner",
          "type": "address"
        },
        {
          "indexed": true,
          "internalType": "address",
          "name": "operator",
          "type": "address"
        },
        {
          "indexed": false,
          "internalType": "bool",
          "name": "approved",
          "type": "bool"
        }
      ],
      "name": "ApprovalForAll",
      "type": "event"
    },
    {
      "anonymous": false,
      "inputs": [
        {
          "indexed": true,
          "internalType": "address",
          "name": "from",
          "type": "address"
        },
        {
          "indexed": true,
          "internalType": "address",
          "name": "to",
          "type": "address"
        },
        {
          "indexed": true,
          "internalType": "uint256",
          "name": "tokenId",
          "type": "uint256"
        }
      ],
      "name": "Transfer",
      "type": "event"
    },
    {
      "inputs": [
        {
          "internalType": "address",
          "name": "to",
          "type": "address"
        },
        {
          "internalType": "uint256",
          "name": "tokenId",
          "type": "uint256"
        }
      ],
      "name": "approve",
      "outputs": [],
      "stateMutability": "nonpayable",
      "type": "function"
    },
    {
      "inputs": [
        {
          "internalType": "address",
          "name": "owner",
          "type": "address"
        }
      ],
      "name": "balanceOf",
      "outputs": [
        {
          "internalType": "uint256",
          "name": "",
          "type": "uint256"
        }
      ],
      "stateMutability": "view",
      "type": "function",
      "constant": true
    },
    {
      "inputs": [],
      "name": "baseURI",
      "outputs": [
        {
          "internalType": "string",
          "name": "",
          "type": "string"
        }
      ],
      "stateMutability": "view",
      "type": "function",
      "constant": true
    },
    {
      "inputs": [
        {
          "internalType": "uint256",
          "name": "tokenId",
          "type": "uint256"
        }
      ],
      "name": "getApproved",
      "outputs": [
        {
          "internalType": "address",
          "name": "",
          "type": "address"
        }
      ],
      "stateMutability": "view",
      "type": "function",
      "constant": true
    },
    {
      "inputs": [
        {
          "internalType": "address",
          "name": "owner",
          "type": "address"
        },
        {
          "internalType": "address",
          "name": "operator",
          "type": "address"
        }
      ],
      "name": "isApprovedForAll",
      "outputs": [
        {
          "internalType": "bool",
          "name": "",
          "type": "bool"
        }
      ],
      "stateMutability": "view",
      "type": "function",
      "constant": true
    },
    {
      "inputs": [],
      "name": "name",
      "outputs": [
        {
          "internalType": "string",
          "name": "",
          "type": "string"
        }
      ],
      "stateMutability": "view",
      "type": "function",
      "constant": true
    },
    {
      "inputs": [
        {
          "internalType": "uint256",
          "name": "tokenId",
          "type": "uint256"
        }
      ],
      "name": "ownerOf",
      "outputs": [
        {
          "internalType": "address",
          "name": "",
          "type": "address"
        }
      ],
      "stateMutability": "view",
      "type": "function",
      "constant": true
    },
    {
      "inputs": [
        {
          "internalType": "address",
          "name": "from",
          "type": "address"
        },
        {
          "internalType": "address",
          "name": "to",
          "type": "address"
        },
        {
          "internalType": "uint256",
          "name": "tokenId",
          "type": "uint256"
        }
      ],
      "name": "safeTransferFrom",
      "outputs": [],
      "stateMutability": "nonpayable",
      "type": "function"
    },
    {
      "inputs": [
        {
          "internalType": "address",
          "name": "from",
          "type": "address"
        },
        {
          "internalType": "address",
          "name": "to",
          "type": "address"
        },
        {
          "internalType": "uint256",
          "name": "tokenId",
          "type": "uint256"
        },
        {
          "internalType": "bytes",
          "name": "_data",
          "type": "bytes"
        }
      ],
      "name": "safeTransferFrom",
      "outputs": [],
      "stateMutability": "nonpayable",
      "type": "function"
    },
    {
      "inputs": [
        {
          "internalType": "address",
          "name": "operator",
          "type": "address"
        },
        {
          "internalType": "bool",
          "name": "approved",
          "type": "bool"
        }
      ],
      "name": "setApprovalForAll",
      "outputs": [],
      "stateMutability": "nonpayable",
      "type": "function"
    },
    {
      "inputs": [
        {
          "internalType": "bytes4",
          "name": "interfaceId",
          "type": "bytes4"
        }
      ],
      "name": "supportsInterface",
      "outputs": [
        {
          "internalType": "bool",
          "name": "",
          "type": "bool"
        }
      ],
      "stateMutability": "view",
      "type": "function",
      "constant": true
    },
    {
      "inputs": [],
      "name": "symbol",
      "outputs": [
        {
          "internalType": "string",
          "name": "",
          "type": "string"
        }
      ],
      "stateMutability": "view",
      "type": "function",
      "constant": true
    },
    {
      "inputs": [
        {
          "internalType": "uint256",
          "name": "index",
          "type": "uint256"
        }
      ],
      "name": "tokenByIndex",
      "outputs": [
        {
          "internalType": "uint256",
          "name": "",
          "type": "uint256"
        }
      ],
      "stateMutability": "view",
      "type": "function",
      "constant": true
    },
    {
      "inputs": [
        {
          "internalType": "uint256",
          "name": "tokenId",
          "type": "uint256"
        }
      ],
      "name": "tokenURI",
      "outputs": [
        {
          "internalType": "string",
          "name": "",
          "type": "string"
        }
      ],
      "stateMutability": "view",
      "type": "function",
      "constant": true
    },
    {
      "inputs": [],
      "name": "totalSupply",
      "outputs": [
        {
          "internalType": "uint256",
          "name": "",
          "type": "uint256"
        }
      ],
      "stateMutability": "view",
      "type": "function",
      "constant": true
    },
    {
      "inputs": [
        {
          "internalType": "address",
          "name": "from",
          "type": "address"
        },
        {
          "internalType": "address",
          "name": "to",
          "type": "address"
        },
        {
          "internalType": "uint256",
          "name": "tokenId",
          "type": "uint256"
        }
      ],
      "name": "transferFrom",
      "outputs": [],
      "stateMutability": "nonpayable",
      "type": "function"
    },
    {
      "inputs": [
        {
          "internalType": "address",
          "name": "account",
          "type": "address"
        }
      ],
      "name": "isBreeder",
      "outputs": [
        {
          "internalType": "bool",
          "name": "",
          "type": "bool"
        }
      ],
      "stateMutability": "nonpayable",
      "type": "function"
    },
    {
      "inputs": [],
      "name": "registrationPrice",
      "outputs": [
        {
          "internalType": "uint256",
          "name": "",
          "type": "uint256"
        }
      ],
      "stateMutability": "nonpayable",
      "type": "function"
    },
    {
      "inputs": [],
      "name": "registerMeAsBreeder",
      "outputs": [],
      "stateMutability": "payable",
      "type": "function",
      "payable": true
    },
    {
      "inputs": [
        {
          "internalType": "uint256",
          "name": "sex",
          "type": "uint256"
        },
        {
          "internalType": "uint256",
          "name": "legs",
          "type": "uint256"
        },
        {
          "internalType": "bool",
          "name": "wings",
          "type": "bool"
        },
        {
          "internalType": "string",
          "name": "name",
          "type": "string"
        }
      ],
      "name": "declareAnimal",
      "outputs": [
        {
          "internalType": "uint256",
          "name": "",
          "type": "uint256"
        }
      ],
      "stateMutability": "nonpayable",
      "type": "function"
    },
    {
      "inputs": [
        {
          "internalType": "uint256",
          "name": "animalNumber",
          "type": "uint256"
        }
      ],
      "name": "getAnimalCharacteristics",
      "outputs": [
        {
          "internalType": "string",
          "name": "_name",
          "type": "string"
        },
        {
          "internalType": "bool",
          "name": "_wings",
          "type": "bool"
        },
        {
          "internalType": "uint256",
          "name": "_legs",
          "type": "uint256"
        },
        {
          "internalType": "uint256",
          "name": "_sex",
          "type": "uint256"
        }
      ],
      "stateMutability": "nonpayable",
      "type": "function"
    },
    {
      "inputs": [
        {
          "internalType": "uint256",
          "name": "animalNumber",
          "type": "uint256"
        }
      ],
      "name": "declareDeadAnimal",
      "outputs": [],
      "stateMutability": "nonpayable",
      "type": "function"
    },
    {
      "inputs": [
        {
          "internalType": "address",
          "name": "owner",
          "type": "address"
        },
        {
          "internalType": "uint256",
          "name": "index",
          "type": "uint256"
        }
      ],
      "name": "tokenOfOwnerByIndex",
      "outputs": [
        {
          "internalType": "uint256",
          "name": "",
          "type": "uint256"
        }
      ],
      "stateMutability": "view",
      "type": "function",
      "constant": true
    },
    {
      "inputs": [
        {
          "internalType": "uint256",
          "name": "animalNumber",
          "type": "uint256"
        }
      ],
      "name": "isAnimalForSale",
      "outputs": [
        {
          "internalType": "bool",
          "name": "",
          "type": "bool"
        }
      ],
      "stateMutability": "view",
      "type": "function",
      "constant": true
    },
    {
      "inputs": [
        {
          "internalType": "uint256",
          "name": "animalNumber",
          "type": "uint256"
        }
      ],
      "name": "animalPrice",
      "outputs": [
        {
          "internalType": "uint256",
          "name": "",
          "type": "uint256"
        }
      ],
      "stateMutability": "view",
      "type": "function",
      "constant": true
    },
    {
      "inputs": [
        {
          "internalType": "uint256",
          "name": "animalNumber",
          "type": "uint256"
        }
      ],
      "name": "buyAnimal",
      "outputs": [],
      "stateMutability": "payable",
      "type": "function",
      "payable": true
    },
    {
      "inputs": [
        {
          "internalType": "uint256",
          "name": "animalNumber",
          "type": "uint256"
        },
        {
          "internalType": "uint256",
          "name": "price",
          "type": "uint256"
        }
      ],
      "name": "offerForSale",
      "outputs": [],
      "stateMutability": "nonpayable",
      "type": "function"
    },
    {
      "inputs": [
        {
          "internalType": "uint256",
          "name": "sex",
          "type": "uint256"
        },
        {
          "internalType": "uint256",
          "name": "legs",
          "type": "uint256"
        },
        {
          "internalType": "bool",
          "name": "wings",
          "type": "bool"
        },
        {
          "internalType": "string",
          "name": "name",
          "type": "string"
        },
        {
          "internalType": "uint256",
          "name": "parent1",
          "type": "uint256"
        },
        {
          "internalType": "uint256",
          "name": "parent2",
          "type": "uint256"
        }
      ],
      "name": "declareAnimalWithParents",
      "outputs": [
        {
          "internalType": "uint256",
          "name": "",
          "type": "uint256"
        }
      ],
      "stateMutability": "nonpayable",
      "type": "function"
    },
    {
      "inputs": [
        {
          "internalType": "uint256",
          "name": "animalNumber",
          "type": "uint256"
        }
      ],
      "name": "getParents",
      "outputs": [
        {
          "internalType": "uint256",
          "name": "",
          "type": "uint256"
        },
        {
          "internalType": "uint256",
          "name": "",
          "type": "uint256"
        }
      ],
      "stateMutability": "nonpayable",
      "type": "function"
    },
    {
      "inputs": [
        {
          "internalType": "uint256",
          "name": "animalNumber",
          "type": "uint256"
        }
      ],
      "name": "canReproduce",
      "outputs": [
        {
          "internalType": "bool",
          "name": "",
          "type": "bool"
        }
      ],
      "stateMutability": "nonpayable",
      "type": "function"
    },
    {
      "inputs": [
        {
          "internalType": "uint256",
          "name": "animalNumber",
          "type": "uint256"
        }
      ],
      "name": "reproductionPrice",
      "outputs": [
        {
          "internalType": "uint256",
          "name": "",
          "type": "uint256"
        }
      ],
      "stateMutability": "view",
      "type": "function",
      "constant": true
    },
    {
      "inputs": [
        {
          "internalType": "uint256",
          "name": "animalNumber",
          "type": "uint256"
        },
        {
          "internalType": "uint256",
          "name": "priceOfReproduction",
          "type": "uint256"
        }
      ],
      "name": "offerForReproduction",
      "outputs": [
        {
          "internalType": "uint256",
          "name": "",
          "type": "uint256"
        }
      ],
      "stateMutability": "nonpayable",
      "type": "function"
    },
    {
      "inputs": [
        {
          "internalType": "uint256",
          "name": "animalNumber",
          "type": "uint256"
        }
      ],
      "name": "authorizedBreederToReproduce",
      "outputs": [
        {
          "internalType": "address",
          "name": "",
          "type": "address"
        }
      ],
      "stateMutability": "nonpayable",
      "type": "function"
    },
    {
      "inputs": [
        {
          "internalType": "uint256",
          "name": "animalNumber",
          "type": "uint256"
        }
      ],
      "name": "payForReproduction",
      "outputs": [],
      "stateMutability": "payable",
      "type": "function",
      "payable": true
    }
  ],
  "bytecode": "0x60806040523480156200001157600080fd5b50604051620036e4380380620036e4833981810160405260208110156200003757600080fd5b81019080805190602001909291905050506040518060400160405280600c81526020017f54657374436f6e747261637400000000000000000000000000000000000000008152506040518060400160405280600381526020017f544f4d0000000000000000000000000000000000000000000000000000000000815250620000cc6301ffc9a760e01b6200016260201b60201c565b8160069080519060200190620000e4929190620006c8565b508060079080519060200190620000fd929190620006c8565b50620001166380ac58cd60e01b6200016260201b60201c565b6200012e635b5e139f60e01b6200016260201b60201c565b6200014663780e9d6360e01b6200016260201b60201c565b50506200015b8160016200026b60201b60201c565b5062000777565b63ffffffff60e01b817bffffffffffffffffffffffffffffffffffffffffffffffffffffffff19161415620001ff576040517f08c379a000000000000000000000000000000000000000000000000000000000815260040180806020018281038252601c8152602001807f4552433136353a20696e76616c696420696e746572666163652069640000000081525060200191505060405180910390fd5b6001600080837bffffffffffffffffffffffffffffffffffffffffffffffffffffffff19167bffffffffffffffffffffffffffffffffffffffffffffffffffffffff1916815260200190815260200160002060006101000a81548160ff02191690831515021790555050565b600073ffffffffffffffffffffffffffffffffffffffff168273ffffffffffffffffffffffffffffffffffffffff1614156200030f576040517f08c379a00000000000000000000000000000000000000000000000000000000081526004018080602001828103825260208152602001807f4552433732313a206d696e7420746f20746865207a65726f206164647265737381525060200191505060405180910390fd5b62000320816200047f60201b60201c565b1562000394576040517f08c379a000000000000000000000000000000000000000000000000000000000815260040180806020018281038252601c8152602001807f4552433732313a20746f6b656e20616c7265616479206d696e7465640000000081525060200191505060405180910390fd5b620003a860008383620004a360201b60201c565b6200040081600160008573ffffffffffffffffffffffffffffffffffffffff1673ffffffffffffffffffffffffffffffffffffffff168152602001908152602001600020620004a860201b620023ae1790919060201c565b506200041e81836002620004ca60201b620023c8179092919060201c565b50808273ffffffffffffffffffffffffffffffffffffffff16600073ffffffffffffffffffffffffffffffffffffffff167fddf252ad1be2c89b69c2b068fc378daa952ba7f163c4a11628f55a4df523b3ef60405160405180910390a45050565b60006200049c8260026200050760201b620023641790919060201c565b9050919050565b505050565b6000620004c2836000018360001b6200052960201b60201c565b905092915050565b6000620004fe846000018460001b8473ffffffffffffffffffffffffffffffffffffffff1660001b620005a360201b60201c565b90509392505050565b600062000521836000018360001b6200068260201b60201c565b905092915050565b60006200053d8383620006a560201b60201c565b620005985782600001829080600181540180825580915050600190039060005260206000200160009091909190915055826000018054905083600101600084815260200190815260200160002081905550600190506200059d565b600090505b92915050565b60008084600101600085815260200190815260200160002054905060008114156200064c578460000160405180604001604052808681526020018581525090806001815401808255809150506001900390600052602060002090600202016000909190919091506000820151816000015560208201518160010155505084600001805490508560010160008681526020019081526020016000208190555060019150506200067b565b828560000160018303815481106200066057fe5b90600052602060002090600202016001018190555060009150505b9392505050565b600080836001016000848152602001908152602001600020541415905092915050565b600080836001016000848152602001908152602001600020541415905092915050565b828054600181600116156101000203166002900490600052602060002090601f016020900481019282601f106200070b57805160ff19168380011785556200073c565b828001600101855582156200073c579182015b828111156200073b5782518255916020019190600101906200071e565b5b5090506200074b91906200074f565b5090565b6200077491905b808211156200077057600081600090555060010162000756565b5090565b90565b612f5d80620007876000396000f3fe6080604052600436106101f95760003560e01c80634f6ccce71161010d578063a22cb465116100a0578063c7b9cb0b1161006f578063c7b9cb0b14610e8f578063c87b56dd14610ef8578063e985e9c514610fac578063ec89777214611035578063ff36ed9814611070576101f9565b8063a22cb46514610c00578063b75e075014610c5d578063b88d4fde14610d2a578063c5f51f7314610e3c576101f9565b806377386df3116100dc57806377386df314610a04578063929c13e314610a4957806395d89b4114610b17578063a0c32c8f14610ba7576101f9565b80634f6ccce7146108455780636352211e146108945780636c0360eb1461090f57806370a082311461099f576101f9565b8063242a00871161019057806332b0f3761161015f57806332b0f376146106645780633573dbd11461071e57806341d30bae1461076d57806342842e0e146107775780634abda8c8146107f2576101f9565b8063242a0087146104d557806327aa8f311461052b5780632a4672b2146105a65780632f745c59146105f5576101f9565b806318160ddd116101cc57806318160ddd146103d65780631a14e94a14610401578063216586581461042f57806323b872dd1461045a576101f9565b806301ffc9a7146101fe57806306fdde0314610270578063081812fc14610300578063095ea7b31461037b575b600080fd5b34801561020a57600080fd5b506102566004803603602081101561022157600080fd5b8101908080357bffffffffffffffffffffffffffffffffffffffffffffffffffffffff1916906020019092919050505061109e565b604051808215151515815260200191505060405180910390f35b34801561027c57600080fd5b50610285611105565b6040518080602001828103825283818151815260200191508051906020019080838360005b838110156102c55780820151818401526020810190506102aa565b50505050905090810190601f1680156102f25780820380516001836020036101000a031916815260200191505b509250505060405180910390f35b34801561030c57600080fd5b506103396004803603602081101561032357600080fd5b81019080803590602001909291905050506111a7565b604051808273ffffffffffffffffffffffffffffffffffffffff1673ffffffffffffffffffffffffffffffffffffffff16815260200191505060405180910390f35b34801561038757600080fd5b506103d46004803603604081101561039e57600080fd5b81019080803573ffffffffffffffffffffffffffffffffffffffff16906020019092919080359060200190929190505050611242565b005b3480156103e257600080fd5b506103eb611386565b6040518082815260200191505060405180910390f35b61042d6004803603602081101561041757600080fd5b8101908080359060200190929190505050611397565b005b34801561043b57600080fd5b5061044461139a565b6040518082815260200191505060405180910390f35b34801561046657600080fd5b506104d36004803603606081101561047d57600080fd5b81019080803573ffffffffffffffffffffffffffffffffffffffff169060200190929190803573ffffffffffffffffffffffffffffffffffffffff169060200190929190803590602001909291905050506113a3565b005b3480156104e157600080fd5b5061050e600480360360208110156104f857600080fd5b8101908080359060200190929190505050611419565b604051808381526020018281526020019250505060405180910390f35b34801561053757600080fd5b506105646004803603602081101561054e57600080fd5b810190808035906020019092919050505061142e565b604051808273ffffffffffffffffffffffffffffffffffffffff1673ffffffffffffffffffffffffffffffffffffffff16815260200191505060405180910390f35b3480156105b257600080fd5b506105df600480360360208110156105c957600080fd5b8101908080359060200190929190505050611438565b6040518082815260200191505060405180910390f35b34801561060157600080fd5b5061064e6004803603604081101561061857600080fd5b81019080803573ffffffffffffffffffffffffffffffffffffffff16906020019092919080359060200190929190505050611443565b6040518082815260200191505060405180910390f35b34801561067057600080fd5b506107086004803603608081101561068757600080fd5b810190808035906020019092919080359060200190929190803515159060200190929190803590602001906401000000008111156106c457600080fd5b8201836020820111156106d657600080fd5b803590602001918460018302840111640100000000831117156106f857600080fd5b909192939192939050505061144f565b6040518082815260200191505060405180910390f35b34801561072a57600080fd5b506107576004803603602081101561074157600080fd5b810190808035906020019092919050505061145e565b6040518082815260200191505060405180910390f35b610775611469565b005b34801561078357600080fd5b506107f06004803603606081101561079a57600080fd5b81019080803573ffffffffffffffffffffffffffffffffffffffff169060200190929190803573ffffffffffffffffffffffffffffffffffffffff1690602001909291908035906020019092919050505061146b565b005b3480156107fe57600080fd5b5061082b6004803603602081101561081557600080fd5b810190808035906020019092919050505061148b565b604051808215151515815260200191505060405180910390f35b34801561085157600080fd5b5061087e6004803603602081101561086857600080fd5b8101908080359060200190929190505050611496565b6040518082815260200191505060405180910390f35b3480156108a057600080fd5b506108cd600480360360208110156108b757600080fd5b81019080803590602001909291905050506114b9565b604051808273ffffffffffffffffffffffffffffffffffffffff1673ffffffffffffffffffffffffffffffffffffffff16815260200191505060405180910390f35b34801561091b57600080fd5b506109246114f0565b6040518080602001828103825283818151815260200191508051906020019080838360005b83811015610964578082015181840152602081019050610949565b50505050905090810190601f1680156109915780820380516001836020036101000a031916815260200191505b509250505060405180910390f35b3480156109ab57600080fd5b506109ee600480360360208110156109c257600080fd5b81019080803573ffffffffffffffffffffffffffffffffffffffff169060200190929190505050611592565b6040518082815260200191505060405180910390f35b348015610a1057600080fd5b50610a4760048036036040811015610a2757600080fd5b810190808035906020019092919080359060200190929190505050611667565b005b348015610a5557600080fd5b50610b01600480360360c0811015610a6c57600080fd5b81019080803590602001909291908035906020019092919080351515906020019092919080359060200190640100000000811115610aa957600080fd5b820183602082011115610abb57600080fd5b80359060200191846001830284011164010000000083111715610add57600080fd5b9091929391929390803590602001909291908035906020019092919050505061166b565b6040518082815260200191505060405180910390f35b348015610b2357600080fd5b50610b2c61167c565b6040518080602001828103825283818151815260200191508051906020019080838360005b83811015610b6c578082015181840152602081019050610b51565b50505050905090810190601f168015610b995780820380516001836020036101000a031916815260200191505b509250505060405180910390f35b348015610bb357600080fd5b50610bea60048036036040811015610bca57600080fd5b81019080803590602001909291908035906020019092919050505061171e565b6040518082815260200191505060405180910390f35b348015610c0c57600080fd5b50610c5b60048036036040811015610c2357600080fd5b81019080803573ffffffffffffffffffffffffffffffffffffffff16906020019092919080351515906020019092919050505061172a565b005b348015610c6957600080fd5b50610c9660048036036020811015610c8057600080fd5b81019080803590602001909291905050506118e2565b604051808060200185151515158152602001848152602001838152602001828103825286818151815260200191508051906020019080838360005b83811015610cec578082015181840152602081019050610cd1565b50505050905090810190601f168015610d195780820380516001836020036101000a031916815260200191505b509550505050505060405180910390f35b348015610d3657600080fd5b50610e3a60048036036080811015610d4d57600080fd5b81019080803573ffffffffffffffffffffffffffffffffffffffff169060200190929190803573ffffffffffffffffffffffffffffffffffffffff1690602001909291908035906020019092919080359060200190640100000000811115610db457600080fd5b820183602082011115610dc657600080fd5b80359060200191846001830284011164010000000083111715610de857600080fd5b91908080601f016020809104026020016040519081016040528093929190818152602001838380828437600081840152601f19601f82011690508083019250505050505050919291929050505061193c565b005b348015610e4857600080fd5b50610e7560048036036020811015610e5f57600080fd5b81019080803590602001909291905050506119b4565b604051808215151515815260200191505060405180910390f35b348015610e9b57600080fd5b50610ede60048036036020811015610eb257600080fd5b81019080803573ffffffffffffffffffffffffffffffffffffffff1690602001909291905050506119bf565b604051808215151515815260200191505060405180910390f35b348015610f0457600080fd5b50610f3160048036036020811015610f1b57600080fd5b81019080803590602001909291905050506119ca565b6040518080602001828103825283818151815260200191508051906020019080838360005b83811015610f71578082015181840152602081019050610f56565b50505050905090810190601f168015610f9e5780820380516001836020036101000a031916815260200191505b509250505060405180910390f35b348015610fb857600080fd5b5061101b60048036036040811015610fcf57600080fd5b81019080803573ffffffffffffffffffffffffffffffffffffffff169060200190929190803573ffffffffffffffffffffffffffffffffffffffff169060200190929190505050611c9b565b604051808215151515815260200191505060405180910390f35b34801561104157600080fd5b5061106e6004803603602081101561105857600080fd5b8101908080359060200190929190505050611d2f565b005b61109c6004803603602081101561108657600080fd5b8101908080359060200190929190505050611d32565b005b6000806000837bffffffffffffffffffffffffffffffffffffffffffffffffffffffff19167bffffffffffffffffffffffffffffffffffffffffffffffffffffffff1916815260200190815260200160002060009054906101000a900460ff169050919050565b606060068054600181600116156101000203166002900480601f01602080910402602001604051908101604052809291908181526020018280546001816001161561010002031660029004801561119d5780601f106111725761010080835404028352916020019161119d565b820191906000526020600020905b81548152906001019060200180831161118057829003601f168201915b5050505050905090565b60006111b282611d35565b611207576040517f08c379a000000000000000000000000000000000000000000000000000000000815260040180806020018281038252602c815260200180612e52602c913960400191505060405180910390fd5b6004600083815260200190815260200160002060009054906101000a900473ffffffffffffffffffffffffffffffffffffffff169050919050565b600061124d826114b9565b90508073ffffffffffffffffffffffffffffffffffffffff168373ffffffffffffffffffffffffffffffffffffffff1614156112d4576040517f08c379a0000000000000000000000000000000000000000000000000000000008152600401808060200182810382526021815260200180612ed66021913960400191505060405180910390fd5b8073ffffffffffffffffffffffffffffffffffffffff166112f3611d52565b73ffffffffffffffffffffffffffffffffffffffff16148061132257506113218161131c611d52565b611c9b565b5b611377576040517f08c379a0000000000000000000000000000000000000000000000000000000008152600401808060200182810382526038815260200180612da56038913960400191505060405180910390fd5b6113818383611d5a565b505050565b60006113926002611e13565b905090565b50565b60006001905090565b6113b46113ae611d52565b82611e28565b611409576040517f08c379a0000000000000000000000000000000000000000000000000000000008152600401808060200182810382526031815260200180612ef76031913960400191505060405180910390fd5b611414838383611f1c565b505050565b60008060018081915080905091509150915091565b6000809050919050565b600060019050919050565b60006001905092915050565b60006001905095945050505050565b600060019050919050565b565b6114868383836040518060200160405280600081525061193c565b505050565b600060019050919050565b6000806114ad83600261215f90919063ffffffff16565b50905080915050919050565b60006114e982604051806060016040528060298152602001612e0760299139600261218e9092919063ffffffff16565b9050919050565b606060098054600181600116156101000203166002900480601f0160208091040260200160405190810160405280929190818152602001828054600181600116156101000203166002900480156115885780601f1061155d57610100808354040283529160200191611588565b820191906000526020600020905b81548152906001019060200180831161156b57829003601f168201915b5050505050905090565b60008073ffffffffffffffffffffffffffffffffffffffff168273ffffffffffffffffffffffffffffffffffffffff161415611619576040517f08c379a000000000000000000000000000000000000000000000000000000000815260040180806020018281038252602a815260200180612ddd602a913960400191505060405180910390fd5b611660600160008473ffffffffffffffffffffffffffffffffffffffff1673ffffffffffffffffffffffffffffffffffffffff1681526020019081526020016000206121ad565b9050919050565b5050565b600060019050979650505050505050565b606060078054600181600116156101000203166002900480601f0160208091040260200160405190810160405280929190818152602001828054600181600116156101000203166002900480156117145780601f106116e957610100808354040283529160200191611714565b820191906000526020600020905b8154815290600101906020018083116116f757829003601f168201915b5050505050905090565b60006001905092915050565b611732611d52565b73ffffffffffffffffffffffffffffffffffffffff168273ffffffffffffffffffffffffffffffffffffffff1614156117d3576040517f08c379a00000000000000000000000000000000000000000000000000000000081526004018080602001828103825260198152602001807f4552433732313a20617070726f766520746f2063616c6c65720000000000000081525060200191505060405180910390fd5b80600560006117e0611d52565b73ffffffffffffffffffffffffffffffffffffffff1673ffffffffffffffffffffffffffffffffffffffff16815260200190815260200160002060008473ffffffffffffffffffffffffffffffffffffffff1673ffffffffffffffffffffffffffffffffffffffff16815260200190815260200160002060006101000a81548160ff0219169083151502179055508173ffffffffffffffffffffffffffffffffffffffff1661188d611d52565b73ffffffffffffffffffffffffffffffffffffffff167f17307eab39ab6107e8899845ad3d59bd9653f200f220920489ca2b5937696c3183604051808215151515815260200191505060405180910390a35050565b6060600080600060018060016040518060400160405280600481526020017f746573740000000000000000000000000000000000000000000000000000000081525092919081915080905093509350935093509193509193565b61194d611947611d52565b83611e28565b6119a2576040517f08c379a0000000000000000000000000000000000000000000000000000000008152600401808060200182810382526031815260200180612ef76031913960400191505060405180910390fd5b6119ae848484846121c2565b50505050565b600060019050919050565b600060019050919050565b60606119d582611d35565b611a2a576040517f08c379a000000000000000000000000000000000000000000000000000000000815260040180806020018281038252602f815260200180612ea7602f913960400191505060405180910390fd5b6060600860008481526020019081526020016000208054600181600116156101000203166002900480601f016020809104026020016040519081016040528092919081815260200182805460018160011615610100020316600290048015611ad35780601f10611aa857610100808354040283529160200191611ad3565b820191906000526020600020905b815481529060010190602001808311611ab657829003601f168201915b505050505090506060611ae46114f0565b9050600081511415611afa578192505050611c96565b600082511115611bcb5780826040516020018083805190602001908083835b60208310611b3c5780518252602082019150602081019050602083039250611b19565b6001836020036101000a03801982511681845116808217855250505050505090500182805190602001908083835b60208310611b8d5780518252602082019150602081019050602083039250611b6a565b6001836020036101000a0380198251168184511680821785525050505050509050019250505060405160208183030381529060405292505050611c96565b80611bd585612234565b6040516020018083805190602001908083835b60208310611c0b5780518252602082019150602081019050602083039250611be8565b6001836020036101000a03801982511681845116808217855250505050505090500182805190602001908083835b60208310611c5c5780518252602082019150602081019050602083039250611c39565b6001836020036101000a03801982511681845116808217855250505050505090500192505050604051602081830303815290604052925050505b919050565b6000600560008473ffffffffffffffffffffffffffffffffffffffff1673ffffffffffffffffffffffffffffffffffffffff16815260200190815260200160002060008373ffffffffffffffffffffffffffffffffffffffff1673ffffffffffffffffffffffffffffffffffffffff16815260200190815260200160002060009054906101000a900460ff16905092915050565b50565b50565b6000611d4b82600261236490919063ffffffff16565b9050919050565b600033905090565b816004600083815260200190815260200160002060006101000a81548173ffffffffffffffffffffffffffffffffffffffff021916908373ffffffffffffffffffffffffffffffffffffffff160217905550808273ffffffffffffffffffffffffffffffffffffffff16611dcd836114b9565b73ffffffffffffffffffffffffffffffffffffffff167f8c5be1e5ebec7d5bd14f71427d1e84f3dd0314c0f7b2291e5b200ac8c7c3b92560405160405180910390a45050565b6000611e218260000161237e565b9050919050565b6000611e3382611d35565b611e88576040517f08c379a000000000000000000000000000000000000000000000000000000000815260040180806020018281038252602c815260200180612d79602c913960400191505060405180910390fd5b6000611e93836114b9565b90508073ffffffffffffffffffffffffffffffffffffffff168473ffffffffffffffffffffffffffffffffffffffff161480611f0257508373ffffffffffffffffffffffffffffffffffffffff16611eea846111a7565b73ffffffffffffffffffffffffffffffffffffffff16145b80611f135750611f128185611c9b565b5b91505092915050565b8273ffffffffffffffffffffffffffffffffffffffff16611f3c826114b9565b73ffffffffffffffffffffffffffffffffffffffff1614611fa8576040517f08c379a0000000000000000000000000000000000000000000000000000000008152600401808060200182810382526029815260200180612e7e6029913960400191505060405180910390fd5b600073ffffffffffffffffffffffffffffffffffffffff168273ffffffffffffffffffffffffffffffffffffffff16141561202e576040517f08c379a0000000000000000000000000000000000000000000000000000000008152600401808060200182810382526024815260200180612d2f6024913960400191505060405180910390fd5b61203983838361238f565b612044600082611d5a565b61209581600160008673ffffffffffffffffffffffffffffffffffffffff1673ffffffffffffffffffffffffffffffffffffffff16815260200190815260200160002061239490919063ffffffff16565b506120e781600160008573ffffffffffffffffffffffffffffffffffffffff1673ffffffffffffffffffffffffffffffffffffffff1681526020019081526020016000206123ae90919063ffffffff16565b506120fe818360026123c89092919063ffffffff16565b50808273ffffffffffffffffffffffffffffffffffffffff168473ffffffffffffffffffffffffffffffffffffffff167fddf252ad1be2c89b69c2b068fc378daa952ba7f163c4a11628f55a4df523b3ef60405160405180910390a4505050565b60008060008061217286600001866123fd565b915091508160001c8160001c8090509350935050509250929050565b60006121a1846000018460001b84612496565b60001c90509392505050565b60006121bb8260000161258c565b9050919050565b6121cd848484611f1c565b6121d98484848461259d565b61222e576040517f08c379a0000000000000000000000000000000000000000000000000000000008152600401808060200182810382526032815260200180612cfd6032913960400191505060405180910390fd5b50505050565b6060600082141561227c576040518060400160405280600181526020017f3000000000000000000000000000000000000000000000000000000000000000815250905061235f565b600082905060005b600082146122a6578080600101915050600a828161229e57fe5b049150612284565b6060816040519080825280601f01601f1916602001820160405280156122db5781602001600182028038833980820191505090505b50905060006001830390508593505b6000841461235757600a84816122fc57fe5b0660300160f81b8282806001900393508151811061231657fe5b60200101907effffffffffffffffffffffffffffffffffffffffffffffffffffffffffffff1916908160001a905350600a848161234f57fe5b0493506122ea565b819450505050505b919050565b6000612376836000018360001b6127e2565b905092915050565b600081600001805490509050919050565b505050565b60006123a6836000018360001b612805565b905092915050565b60006123c0836000018360001b6128ed565b905092915050565b60006123f4846000018460001b8473ffffffffffffffffffffffffffffffffffffffff1660001b61295d565b90509392505050565b6000808284600001805490501161245f576040517f08c379a0000000000000000000000000000000000000000000000000000000008152600401808060200182810382526022815260200180612e306022913960400191505060405180910390fd5b600084600001848154811061247057fe5b906000526020600020906002020190508060000154816001015492509250509250929050565b6000808460010160008581526020019081526020016000205490506000811415839061255d576040517f08c379a00000000000000000000000000000000000000000000000000000000081526004018080602001828103825283818151815260200191508051906020019080838360005b83811015612522578082015181840152602081019050612507565b50505050905090810190601f16801561254f5780820380516001836020036101000a031916815260200191505b509250505060405180910390fd5b5084600001600182038154811061257057fe5b9060005260206000209060020201600101549150509392505050565b600081600001805490509050919050565b60006125be8473ffffffffffffffffffffffffffffffffffffffff16612a39565b6125cb57600190506127da565b606061276163150b7a0260e01b6125e0611d52565b888787604051602401808573ffffffffffffffffffffffffffffffffffffffff1673ffffffffffffffffffffffffffffffffffffffff1681526020018473ffffffffffffffffffffffffffffffffffffffff1673ffffffffffffffffffffffffffffffffffffffff16815260200183815260200180602001828103825283818151815260200191508051906020019080838360005b83811015612690578082015181840152602081019050612675565b50505050905090810190601f1680156126bd5780820380516001836020036101000a031916815260200191505b5095505050505050604051602081830303815290604052907bffffffffffffffffffffffffffffffffffffffffffffffffffffffff19166020820180517bffffffffffffffffffffffffffffffffffffffffffffffffffffffff8381831617835250505050604051806060016040528060328152602001612cfd603291398773ffffffffffffffffffffffffffffffffffffffff16612a4c9092919063ffffffff16565b9050600081806020019051602081101561277a57600080fd5b8101908080519060200190929190505050905063150b7a0260e01b7bffffffffffffffffffffffffffffffffffffffffffffffffffffffff1916817bffffffffffffffffffffffffffffffffffffffffffffffffffffffff191614925050505b949350505050565b600080836001016000848152602001908152602001600020541415905092915050565b600080836001016000848152602001908152602001600020549050600081146128e1576000600182039050600060018660000180549050039050600086600001828154811061285057fe5b906000526020600020015490508087600001848154811061286d57fe5b90600052602060002001819055506001830187600101600083815260200190815260200160002081905550866000018054806128a557fe5b600190038181906000526020600020016000905590558660010160008781526020019081526020016000206000905560019450505050506128e7565b60009150505b92915050565b60006128f98383612a64565b612952578260000182908060018154018082558091505060019003906000526020600020016000909190919091505582600001805490508360010160008481526020019081526020016000208190555060019050612957565b600090505b92915050565b6000808460010160008581526020019081526020016000205490506000811415612a0457846000016040518060400160405280868152602001858152509080600181540180825580915050600190039060005260206000209060020201600090919091909150600082015181600001556020820151816001015550508460000180549050856001016000868152602001908152602001600020819055506001915050612a32565b82856000016001830381548110612a1757fe5b90600052602060002090600202016001018190555060009150505b9392505050565b600080823b905060008111915050919050565b6060612a5b8484600085612a87565b90509392505050565b600080836001016000848152602001908152602001600020541415905092915050565b606082471015612ae2576040517f08c379a0000000000000000000000000000000000000000000000000000000008152600401808060200182810382526026815260200180612d536026913960400191505060405180910390fd5b612aeb85612a39565b612b5d576040517f08c379a000000000000000000000000000000000000000000000000000000000815260040180806020018281038252601d8152602001807f416464726573733a2063616c6c20746f206e6f6e2d636f6e747261637400000081525060200191505060405180910390fd5b600060608673ffffffffffffffffffffffffffffffffffffffff1685876040518082805190602001908083835b60208310612bad5780518252602082019150602081019050602083039250612b8a565b6001836020036101000a03801982511681845116808217855250505050505090500191505060006040518083038185875af1925050503d8060008114612c0f576040519150601f19603f3d011682016040523d82523d6000602084013e612c14565b606091505b5091509150612c24828286612c30565b92505050949350505050565b60608315612c4057829050612cf5565b600083511115612c535782518084602001fd5b816040517f08c379a00000000000000000000000000000000000000000000000000000000081526004018080602001828103825283818151815260200191508051906020019080838360005b83811015612cba578082015181840152602081019050612c9f565b50505050905090810190601f168015612ce75780820380516001836020036101000a031916815260200191505b509250505060405180910390fd5b939250505056fe4552433732313a207472616e7366657220746f206e6f6e20455243373231526563656976657220696d706c656d656e7465724552433732313a207472616e7366657220746f20746865207a65726f2061646472657373416464726573733a20696e73756666696369656e742062616c616e636520666f722063616c6c4552433732313a206f70657261746f7220717565727920666f72206e6f6e6578697374656e7420746f6b656e4552433732313a20617070726f76652063616c6c6572206973206e6f74206f776e6572206e6f7220617070726f76656420666f7220616c6c4552433732313a2062616c616e636520717565727920666f7220746865207a65726f20616464726573734552433732313a206f776e657220717565727920666f72206e6f6e6578697374656e7420746f6b656e456e756d657261626c654d61703a20696e646578206f7574206f6620626f756e64734552433732313a20617070726f76656420717565727920666f72206e6f6e6578697374656e7420746f6b656e4552433732313a207472616e73666572206f6620746f6b656e2074686174206973206e6f74206f776e4552433732314d657461646174613a2055524920717565727920666f72206e6f6e6578697374656e7420746f6b656e4552433732313a20617070726f76616c20746f2063757272656e74206f776e65724552433732313a207472616e736665722063616c6c6572206973206e6f74206f776e6572206e6f7220617070726f766564a2646970667358221220d496a8d46f606d0346ea326e65f3350b015d51290face841bdec492dd16d15b064736f6c63430006020033",
  "source": "pragma solidity ^0.6.0;\r\nimport \"./IExerciceSolution.sol\";\r\nimport \"@openzeppelin/contracts/token/ERC721/ERC721.sol\";\r\n\r\ncontract testcontra is IExerciceSolution, ERC721 {\r\n    constructor(address evaluator1) public ERC721(\"TestContract\", \"TOM\"){\r\n    //_mint(address(this), 0);\r\n    _mint(evaluator1, 1); // for question 1\r\n    }\r\n\r\n    function isBreeder(address account) external override returns (bool){\r\n        return true;\r\n    }\r\n\r\n    function registrationPrice() external override returns (uint256){\r\n        return 1;\r\n    }\r\n\r\n    function registerMeAsBreeder() external override payable {\r\n    }\r\n\r\n    function declareAnimal(uint sex, uint legs, bool wings, string calldata name) external override returns (uint256){\r\n        return 1;\r\n    }\r\n\r\n    function getAnimalCharacteristics(uint animalNumber) external override returns (string memory _name, bool _wings, uint _legs, uint _sex){\r\n        return (\"test\",true,1,1);\r\n    }\r\n\r\n    function declareDeadAnimal(uint animalNumber) external override {}\r\n\r\n    function tokenOfOwnerByIndex(address owner, uint256 index) public view override (IExerciceSolution,ERC721)returns (uint256){\r\n        return 1;\r\n    }\r\n\r\n    function isAnimalForSale(uint animalNumber) external override view returns (bool){\r\n        return true;\r\n    }\r\n\r\n    function animalPrice(uint animalNumber) external override view returns (uint256){\r\n    return 1;\r\n    }\r\n\r\n    function buyAnimal(uint animalNumber) external override payable{}\r\n\r\n    function offerForSale(uint animalNumber, uint price) external override{}\r\n\r\n    // Reproduction functions\r\n\r\n    function declareAnimalWithParents(uint sex, uint legs, bool wings, string calldata name, uint parent1, uint parent2) external override returns (uint256){\r\n        return 1;\r\n    }\r\n\r\n    function getParents(uint animalNumber) external override returns (uint256, uint256){\r\n        return (1,1);\r\n    }\r\n\r\n    function canReproduce(uint animalNumber) external override returns (bool){\r\n        return true;\r\n    }\r\n\r\n    function reproductionPrice(uint animalNumber) external override view returns (uint256){\r\n        return 1;\r\n    }\r\n\r\n    function offerForReproduction(uint animalNumber, uint priceOfReproduction) external override returns (uint256){\r\n        return 1;\r\n    }\r\n\r\n    function authorizedBreederToReproduce(uint animalNumber) external override returns (address){\r\n        return address(0);\r\n    }\r\n\r\n    function payForReproduction(uint animalNumber) external override payable{}\r\n\r\n}",
  "sourcePath": "C:\\Users\\brand.LAPTOP-3VV7RARH\\Documents\\Blockchain_programming\\erc721-101\\contracts\\testcontra.sol",
  "compiler": {
    "name": "solc",
    "version": "0.6.2+commit.bacdbe57.Emscripten.clang"
  },
  "schemaVersion": "3.4.11",
  "updatedAt": "2022-11-25T17:23:02.752Z",
  "networkType": "ethereum",
  "devdoc": {
    "methods": {
      "approve(address,uint256)": {
        "details": "See {IERC721-approve}."
      },
      "balanceOf(address)": {
        "details": "See {IERC721-balanceOf}."
      },
      "baseURI()": {
        "details": "Returns the base URI set via {_setBaseURI}. This will be automatically added as a prefix in {tokenURI} to each token's URI, or to the token ID if no specific URI is set for that token ID."
      },
      "getApproved(uint256)": {
        "details": "See {IERC721-getApproved}."
      },
      "isApprovedForAll(address,address)": {
        "details": "See {IERC721-isApprovedForAll}."
      },
      "name()": {
        "details": "See {IERC721Metadata-name}."
      },
      "ownerOf(uint256)": {
        "details": "See {IERC721-ownerOf}."
      },
      "safeTransferFrom(address,address,uint256)": {
        "details": "See {IERC721-safeTransferFrom}."
      },
      "safeTransferFrom(address,address,uint256,bytes)": {
        "details": "See {IERC721-safeTransferFrom}."
      },
      "setApprovalForAll(address,bool)": {
        "details": "See {IERC721-setApprovalForAll}."
      },
      "supportsInterface(bytes4)": {
        "details": "See {IERC165-supportsInterface}.     * Time complexity O(1), guaranteed to always use less than 30 000 gas."
      },
      "symbol()": {
        "details": "See {IERC721Metadata-symbol}."
      },
      "tokenByIndex(uint256)": {
        "details": "See {IERC721Enumerable-tokenByIndex}."
      },
      "tokenURI(uint256)": {
        "details": "See {IERC721Metadata-tokenURI}."
      },
      "totalSupply()": {
        "details": "See {IERC721Enumerable-totalSupply}."
      },
      "transferFrom(address,address,uint256)": {
        "details": "See {IERC721-transferFrom}."
      }
    }
  },
  "userdoc": {
    "methods": {}
  }
}